{
  "contractName": "Ballot",
  "abi": [
    {
      "inputs": [
        {
          "name": "_numProposals",
          "type": "uint8"
        }
      ],
      "payable": false,
      "stateMutability": "nonpayable",
      "type": "constructor"
    },
    {
      "constant": false,
      "inputs": [
        {
          "name": "president_appoval",
          "type": "bool"
        }
      ],
      "name": "vetoRight",
      "outputs": [],
      "payable": false,
      "stateMutability": "nonpayable",
      "type": "function"
    },
    {
      "constant": true,
      "inputs": [],
      "name": "MostVotedProposal",
      "outputs": [
        {
          "name": "mostVotedProposal",
          "type": "uint256"
        }
      ],
      "payable": false,
      "stateMutability": "view",
      "type": "function"
    },
    {
      "constant": true,
      "inputs": [],
      "name": "carbonTaxOnProduct",
      "outputs": [
        {
          "name": "lowerIncomeClass____TaxPercentage",
          "type": "uint256"
        },
        {
          "name": "middleIncomeClass___TaxPercentage",
          "type": "uint256"
        },
        {
          "name": "midUpperIncomeClassTaxPercentage",
          "type": "uint256"
        },
        {
          "name": "UpperIncomeClass___TaxPercentage",
          "type": "uint256"
        }
      ],
      "payable": false,
      "stateMutability": "view",
      "type": "function"
    },
    {
      "constant": false,
      "inputs": [
        {
          "name": "numsofCar",
          "type": "uint256"
        },
        {
          "name": "annual_income",
          "type": "uint256"
        },
        {
          "name": "isclimateChange",
          "type": "bool"
        },
        {
          "name": "recievedClimateChangeEducation",
          "type": "bool"
        },
        {
          "name": "doYouTravelOften",
          "type": "bool"
        },
        {
          "name": "isMilitary",
          "type": "bool"
        },
        {
          "name": "age",
          "type": "uint256"
        }
      ],
      "name": "VoterBackground",
      "outputs": [],
      "payable": false,
      "stateMutability": "nonpayable",
      "type": "function"
    },
    {
      "constant": true,
      "inputs": [],
      "name": "getBackGround",
      "outputs": [
        {
          "name": "numsofCar",
          "type": "uint256"
        },
        {
          "name": "annualIncome",
          "type": "uint256"
        },
        {
          "name": "isClimateChangeBeliver",
          "type": "bool"
        },
        {
          "name": "recievedClimateChangeEducation",
          "type": "bool"
        },
        {
          "name": "doesVoterTravelOften",
          "type": "bool"
        },
        {
          "name": "isMilitary",
          "type": "bool"
        },
        {
          "name": "VoterAge",
          "type": "uint256"
        }
      ],
      "payable": false,
      "stateMutability": "view",
      "type": "function"
    },
    {
      "constant": false,
      "inputs": [],
      "name": "VoteWeight",
      "outputs": [],
      "payable": false,
      "stateMutability": "nonpayable",
      "type": "function"
    },
    {
      "constant": true,
      "inputs": [],
      "name": "getVoteWeight",
      "outputs": [
        {
          "name": "",
          "type": "uint256"
        }
      ],
      "payable": false,
      "stateMutability": "view",
      "type": "function"
    },
    {
      "constant": false,
      "inputs": [
        {
          "name": "toVoter",
          "type": "address"
        }
      ],
      "name": "giveRightToVote",
      "outputs": [],
      "payable": false,
      "stateMutability": "nonpayable",
      "type": "function"
    },
    {
      "constant": false,
      "inputs": [
        {
          "name": "to",
          "type": "address"
        }
      ],
      "name": "delegate",
      "outputs": [],
      "payable": false,
      "stateMutability": "nonpayable",
      "type": "function"
    },
    {
      "constant": false,
      "inputs": [
        {
          "name": "toProposal",
          "type": "uint8"
        }
      ],
      "name": "vote",
      "outputs": [],
      "payable": false,
      "stateMutability": "nonpayable",
      "type": "function"
    },
    {
      "constant": true,
      "inputs": [],
      "name": "winningProposal",
      "outputs": [
        {
          "name": "_winningProposal",
          "type": "uint8"
        }
      ],
      "payable": false,
      "stateMutability": "view",
      "type": "function"
    }
  ],
  "bytecode": "0x608060405234801561001057600080fd5b50604051602080620016678339810180604052602081101561003157600080fd5b8101908080519060200190929190505050336000806101000a81548173ffffffffffffffffffffffffffffffffffffffff021916908373ffffffffffffffffffffffffffffffffffffffff16021790555060018060008060009054906101000a900473ffffffffffffffffffffffffffffffffffffffff1673ffffffffffffffffffffffffffffffffffffffff1673ffffffffffffffffffffffffffffffffffffffff168152602001908152602001600020600001819055508060ff166003816100fb9190610102565b5050610177565b81548183558181111561012f5760030281600302836000526020600020918201910161012e9190610134565b5b505050565b61017491905b80821115610170576000808201600090556001820160006101000a81549060ff021916905560028201600090555060030161013a565b5090565b90565b6114e080620001876000396000f3fe608060405234801561001057600080fd5b50600436106100a95760003560e01c8063609ff1bd11610071578063609ff1bd146101d15780639e7b8d61146101f5578063b3f98adc14610239578063c4c4f3e01461026a578063d428cffc146102c2578063da8f91b8146102e0576100a9565b806314ab5761146100ae57806328b4be761461012057806337e5030214610150578063415e48111461015a5780635c19a95c1461018d575b600080fd5b61011e600480360360e08110156100c457600080fd5b810190808035906020019092919080359060200190929190803515159060200190929190803515159060200190929190803515159060200190929190803515159060200190929190803590602001909291905050506102fe565b005b61014e6004803603602081101561013657600080fd5b810190808035151590602001909291905050506103f3565b005b61015861056c565b005b6101626107aa565b6040518085815260200184815260200183815260200182815260200194505050505060405180910390f35b6101cf600480360360208110156101a357600080fd5b81019080803573ffffffffffffffffffffffffffffffffffffffff1690602001909291905050506109ae565b005b6101d9610d05565b604051808260ff1660ff16815260200191505060405180910390f35b6102376004803603602081101561020b57600080fd5b81019080803573ffffffffffffffffffffffffffffffffffffffff169060200190929190505050610e0b565b005b6102686004803603602081101561024f57600080fd5b81019080803560ff169060200190929190505050610f08565b005b6102726111ef565b604051808881526020018781526020018615151515815260200185151515158152602001841515151581526020018315151515815260200182815260200197505050505050505060405180910390f35b6102ca611326565b6040518082815260200191505060405180910390f35b6102e8611497565b6040518082815260200191505060405180910390f35b6000600160003373ffffffffffffffffffffffffffffffffffffffff1673ffffffffffffffffffffffffffffffffffffffff1681526020019081526020016000209050878160030181905550868160020181905550858160040160006101000a81548160ff021916908315150217905550848160040160016101000a81548160ff021916908315150217905550838160040160026101000a81548160ff021916908315150217905550828160040160036101000a81548160ff02191690831515021790555060018160040160046101000a81548160ff0219169083151502179055508181600601819055505050505050505050565b6000809054906101000a900473ffffffffffffffffffffffffffffffffffffffff1673ffffffffffffffffffffffffffffffffffffffff163373ffffffffffffffffffffffffffffffffffffffff161461044c57600080fd5b6000600260008060009054906101000a900473ffffffffffffffffffffffffffffffffffffffff1673ffffffffffffffffffffffffffffffffffffffff1673ffffffffffffffffffffffffffffffffffffffff16815260200190815260200160002090506000600160003373ffffffffffffffffffffffffffffffffffffffff1673ffffffffffffffffffffffffffffffffffffffff1681526020019081526020016000209050828260010160006101000a81548160ff02191690831515021790555060011515831515141561053f57828260010160006101000a81548160ff0219169083151502179055505050610569565b60008260010160006101000a81548160ff0219169083151502179055506000826000018190555050505b50565b6000600160003373ffffffffffffffffffffffffffffffffffffffff1673ffffffffffffffffffffffffffffffffffffffff1681526020019081526020016000209050600115158160040160049054906101000a900460ff161515146105d157600080fd5b6000600160003373ffffffffffffffffffffffffffffffffffffffff1673ffffffffffffffffffffffffffffffffffffffff1681526020019081526020016000209050600080905060008090506000809050600080905060008090506012866006015410806106555750600015158660040160019054906101000a900460ff161515145b15610665575050505050506107a7565b60028660030154111561067b5760009450610680565b600194505b6175308660020154101561069757600393506106f1565b61753086600201541180156106b2575062015f908660020154105b156106c057600293506106f0565b62015f9086600201541180156106dc57506201fbd08660020154105b156106ea57600193506106ef565b600093505b5b5b600115158660040160009054906101000a900460ff1615151415610718576002925061071d565b600192505b600115158660040160029054906101000a900460ff16151514156107445760029150610749565b600191505b600115158660040160039054906101000a900460ff16151514156107705760019050610775565b600090505b600083838387890101030290506000811161079657505050505050506107a7565b808760050181905550505050505050505b50565b6000806000806000600260008060009054906101000a900473ffffffffffffffffffffffffffffffffffffffff1673ffffffffffffffffffffffffffffffffffffffff1673ffffffffffffffffffffffffffffffffffffffff1681526020019081526020016000209050600115158160010160009054906101000a900460ff1615151461083657600080fd5b6000600460009054906101000a900460ff1660ff16905060018114156108785760199550601994506019935060199250858585859550955095509550506109a7565b60028114156108a35760059550600f945060239350602d9250858585859550955095509550506109a7565b60038114156108ce5760139550601394506013935060139250858585859550955095509550506109a7565b60048114156108f95760059550600f945060199350601e9250858585859550955095509550506109a7565b600581141561092457600d9550600d9450600d9350600d9250858585859550955095509550506109a7565b600681141561094f5760059550600a9450600f935060149250858585859550955095509550506109a7565b600781141561097a5760079550600794506007935060079250858585859550955095509550506109a7565b60088114156109a557600395506005945060079350600a9250858585859550955095509550506109a7565b505b5090919293565b6000600160003373ffffffffffffffffffffffffffffffffffffffff1673ffffffffffffffffffffffffffffffffffffffff16815260200190815260200160002090508060010160009054906101000a900460ff1615610a0e5750610d02565b5b600073ffffffffffffffffffffffffffffffffffffffff16600160008473ffffffffffffffffffffffffffffffffffffffff1673ffffffffffffffffffffffffffffffffffffffff16815260200190815260200160002060010160029054906101000a900473ffffffffffffffffffffffffffffffffffffffff1673ffffffffffffffffffffffffffffffffffffffff1614158015610b3c57503373ffffffffffffffffffffffffffffffffffffffff16600160008473ffffffffffffffffffffffffffffffffffffffff1673ffffffffffffffffffffffffffffffffffffffff16815260200190815260200160002060010160029054906101000a900473ffffffffffffffffffffffffffffffffffffffff1673ffffffffffffffffffffffffffffffffffffffff1614155b15610bab57600160008373ffffffffffffffffffffffffffffffffffffffff1673ffffffffffffffffffffffffffffffffffffffff16815260200190815260200160002060010160029054906101000a900473ffffffffffffffffffffffffffffffffffffffff169150610a0f565b3373ffffffffffffffffffffffffffffffffffffffff168273ffffffffffffffffffffffffffffffffffffffff161415610be55750610d02565b60018160010160006101000a81548160ff021916908315150217905550818160010160026101000a81548173ffffffffffffffffffffffffffffffffffffffff021916908373ffffffffffffffffffffffffffffffffffffffff1602179055506000600160008473ffffffffffffffffffffffffffffffffffffffff1673ffffffffffffffffffffffffffffffffffffffff16815260200190815260200160002090508060010160009054906101000a900460ff1615610ce857816000015460038260010160019054906101000a900460ff1660ff1681548110610cc557fe5b906000526020600020906003020160000160008282540192505081905550610cff565b816000015481600001600082825401925050819055505b50505b50565b600080600260008060009054906101000a900473ffffffffffffffffffffffffffffffffffffffff1673ffffffffffffffffffffffffffffffffffffffff1673ffffffffffffffffffffffffffffffffffffffff1681526020019081526020016000209050600115158160010160009054906101000a900460ff16151514610d8c57600080fd5b600080905060008090505b6003805490508160ff161015610e05578160038260ff1681548110610db857fe5b9060005260206000209060030201600001541115610df85760038160ff1681548110610de057fe5b90600052602060002090600302016000015491508093505b8080600101915050610d97565b50505090565b6000809054906101000a900473ffffffffffffffffffffffffffffffffffffffff1673ffffffffffffffffffffffffffffffffffffffff163373ffffffffffffffffffffffffffffffffffffffff16141580610eb35750600160008273ffffffffffffffffffffffffffffffffffffffff1673ffffffffffffffffffffffffffffffffffffffff16815260200190815260200160002060010160009054906101000a900460ff165b15610ebd57610f05565b60018060008373ffffffffffffffffffffffffffffffffffffffff1673ffffffffffffffffffffffffffffffffffffffff168152602001908152602001600020600001819055505b50565b6000600160003373ffffffffffffffffffffffffffffffffffffffff1673ffffffffffffffffffffffffffffffffffffffff1681526020019081526020016000209050600115158160040160049054906101000a900460ff16151514610f6d57600080fd5b6000600160003373ffffffffffffffffffffffffffffffffffffffff1673ffffffffffffffffffffffffffffffffffffffff1681526020019081526020016000209050601281600601541015610fc257600080fd5b6000600160003373ffffffffffffffffffffffffffffffffffffffff1673ffffffffffffffffffffffffffffffffffffffff1681526020019081526020016000209050600115158160040160019054906101000a900460ff1615151461102757600080fd5b60088460ff16118061103c575060008460ff16145b15611046576111e9565b6000600160003373ffffffffffffffffffffffffffffffffffffffff1673ffffffffffffffffffffffffffffffffffffffff16815260200190815260200160002090508060010160009054906101000a900460ff16806110ae57506003805490508560ff1610155b156110b957506111e9565b60018160010160006101000a81548160ff021916908315150217905550848160010160016101000a81548160ff021916908360ff160217905550806005015460038660ff168154811061110857fe5b9060005260206000209060030201600001600082825401925050819055506000600260008060009054906101000a900473ffffffffffffffffffffffffffffffffffffffff1673ffffffffffffffffffffffffffffffffffffffff1673ffffffffffffffffffffffffffffffffffffffff168152602001908152602001600020905060018160010160006101000a81548160ff0219169083151502179055506111af610d05565b600460006101000a81548160ff021916908360ff16021790555060008160010160006101000a81548160ff02191690831515021790555050505b50505050565b600080600080600080600080600160003373ffffffffffffffffffffffffffffffffffffffff1673ffffffffffffffffffffffffffffffffffffffff1681526020019081526020016000209050600115158160040160049054906101000a900460ff1615151461125e57600080fd5b6000600160003373ffffffffffffffffffffffffffffffffffffffff1673ffffffffffffffffffffffffffffffffffffffff168152602001908152602001600020905080600301549850806002015497508060040160009054906101000a900460ff1696508060040160019054906101000a900460ff1695508060040160029054906101000a900460ff1694508060040160039054906101000a900460ff16935080600601549250888888888888889850985098509850985098509850505090919293949596565b600080600160003373ffffffffffffffffffffffffffffffffffffffff1673ffffffffffffffffffffffffffffffffffffffff1681526020019081526020016000209050600115158160040160049054906101000a900460ff1615151461138c57600080fd5b6000600160003373ffffffffffffffffffffffffffffffffffffffff1673ffffffffffffffffffffffffffffffffffffffff1681526020019081526020016000209050600115158160040160019054906101000a900460ff161515146113f157600080fd5b6000600160003373ffffffffffffffffffffffffffffffffffffffff1673ffffffffffffffffffffffffffffffffffffffff168152602001908152602001600020905060128160060154101561144657600080fd5b6000600160003373ffffffffffffffffffffffffffffffffffffffff1673ffffffffffffffffffffffffffffffffffffffff1681526020019081526020016000209050806005015494505050505090565b6000600460009054906101000a900460ff1660ff1690508090509056fea165627a7a7230582030f018f9d6b24b06558c63c7b19d4d4b365be03d9923ae7ed7d687aacccd52150029",
  "source": "pragma solidity >=0.4.22 <0.6.0;\ncontract Ballot {\n\n//proposal 1    2.5 and fair\n//proposal 2    2.5 and not fair\n//proposal 3    4.5 and fair\n//proposal 4    4.5 and not fair\n//proposal 5    6 and fair\n//proposal 6    6 and not fair\n//proposal 7    8.5 and fair\n//proposal 8    8.5 and notfair\n\n \n    struct Voter {\n        uint weight;\n        bool voted;\n        uint8 vote;\n        address delegate;\n     uint  Annual_income; //**//           //what is the annual_income of the vote? we know their social class by this.\n     uint  numsOfCarsOwned; //**//        //how many cars does the vote owned?\n     bool climateChangeOrNot;               //does the vote believe on climate change?\n     bool recievedClimateChangeEducation;     // does the voter ever recieved some education about the climate change?\n     bool doYouTravelOften ;                 //does the voter travel place to place oftenly? \n     bool isMilitary;                       //does the vote serve in the Military ?\n     bool isSurvey;                        //does this person already fill out the Survey?\n      uint finalVoteWeight;  //**//\n      uint age;\n    }\n  \n    \n    \n    struct Proposal {\n        uint voteCount;\n        bool president_appoval;\n        uint winnerProposal;\n      \n    }\n    \n    \n    address chairperson;\n    \n    \n    \n    mapping(address => Voter) voters;    // czx* this is hashtable\n    mapping(address => Proposal)proposal; // ni jia delegate\n    Proposal[] proposals;\n    uint8  temp;\n   \n\n\n    /// Create a new ballot with $(_numProposals) different proposals.\n    constructor(uint8 _numProposals) public {\n        chairperson = msg.sender;\n        voters[chairperson].weight = 1;\n        proposals.length = _numProposals;\n    \n    }\n\n modifier requireBackGround() \n\n    {   Voter storage sender = voters[msg.sender];          //require voter must to fill out the background Survey before they can do\n                                                            // anything else\n        require(sender.isSurvey == true);  \n        \n      _; \n    } \n    \n    \n    \n     modifier require_Knownlege_of_CC () \n\n    {   Voter storage sender = voters[msg.sender];          //require voter must already recieved climate change education\n                                        \n        require(sender.recievedClimateChangeEducation == true);  \n      _; \n    } \n    \n    \n      modifier isEighteen () \n\n    {   Voter storage sender = voters[msg.sender];          //require voter must be eighteen or above to vote\n                                                           \n        require(sender.age >= 18);  \n      _; \n    } \n\n\n\n     modifier onlychair() \n     {require(msg.sender == chairperson);\n      _;\n     }\n\n\n    modifier presidentAppoval () \n\n    {   Proposal storage p = proposal[chairperson];\n                                                           \n        require(p.president_appoval == true);  \n      _; \n    } \n    \n    \n    \n    \n    \n    \n    \n    \n  function vetoRight(bool president_appoval) onlychair public {    // the chairman (U.S president) have right to veto the final vote result. \n     \n  //\n     Proposal storage sender = proposal[chairperson];\n     Voter storage voter = voters[msg.sender];\n    sender.president_appoval = president_appoval;\n    \n    if(president_appoval == true) {\n        sender.president_appoval = president_appoval;\n        return;\n    }\n   \n     else  {\n            sender.president_appoval = false;\n             sender.voteCount = 0;\n          \n            return;\n     \n     }\n  }\n\n\n\n  //president will look at the result to see if veto or not\n \n  \n function MostVotedProposal() view public returns(uint mostVotedProposal){  \n     \n     mostVotedProposal = temp;\n   return mostVotedProposal;\n     \n }\n \n \n  function carbonTaxOnProduct()presidentAppoval public view returns(uint lowerIncomeClass____TaxPercentage, uint middleIncomeClass___TaxPercentage,\n  uint midUpperIncomeClassTaxPercentage, uint UpperIncomeClass___TaxPercentage)   {\n      uint FinalVoteResult = temp;\n    \n    if(FinalVoteResult == 1){  \n        lowerIncomeClass____TaxPercentage = 25;\n        middleIncomeClass___TaxPercentage = 25;\n        midUpperIncomeClassTaxPercentage = 25;\n        UpperIncomeClass___TaxPercentage =  25;\n        \n return(lowerIncomeClass____TaxPercentage,middleIncomeClass___TaxPercentage,midUpperIncomeClassTaxPercentage,UpperIncomeClass___TaxPercentage);\n    }\n    \n    else if(FinalVoteResult == 2){\n        lowerIncomeClass____TaxPercentage = 5;\n        middleIncomeClass___TaxPercentage = 15;\n        midUpperIncomeClassTaxPercentage = 35;\n        UpperIncomeClass___TaxPercentage =  45;\n return(lowerIncomeClass____TaxPercentage,middleIncomeClass___TaxPercentage,midUpperIncomeClassTaxPercentage,UpperIncomeClass___TaxPercentage);\n    }\n    \n    else if(FinalVoteResult == 3){\n        lowerIncomeClass____TaxPercentage = 19;\n        middleIncomeClass___TaxPercentage = 19;\n        midUpperIncomeClassTaxPercentage = 19;\n        UpperIncomeClass___TaxPercentage =  19;\n return(lowerIncomeClass____TaxPercentage,middleIncomeClass___TaxPercentage,midUpperIncomeClassTaxPercentage,UpperIncomeClass___TaxPercentage);\n    }\n    \n    else if(FinalVoteResult == 4){\n         lowerIncomeClass____TaxPercentage = 5;\n        middleIncomeClass___TaxPercentage = 15;\n        midUpperIncomeClassTaxPercentage = 25;\n        UpperIncomeClass___TaxPercentage =  30;\n         return(lowerIncomeClass____TaxPercentage,middleIncomeClass___TaxPercentage,midUpperIncomeClassTaxPercentage,UpperIncomeClass___TaxPercentage);\n    }\n    \n    else if(FinalVoteResult == 5){\n        lowerIncomeClass____TaxPercentage = 13;\n        middleIncomeClass___TaxPercentage = 13;\n        midUpperIncomeClassTaxPercentage = 13;\n        UpperIncomeClass___TaxPercentage =  13;\n return(lowerIncomeClass____TaxPercentage,middleIncomeClass___TaxPercentage,midUpperIncomeClassTaxPercentage,UpperIncomeClass___TaxPercentage);\n    }\n    \n     else if(FinalVoteResult == 6){\n        lowerIncomeClass____TaxPercentage = 5;\n        middleIncomeClass___TaxPercentage = 10;\n        midUpperIncomeClassTaxPercentage = 15;\n        UpperIncomeClass___TaxPercentage =  20;\n  return(lowerIncomeClass____TaxPercentage,middleIncomeClass___TaxPercentage,midUpperIncomeClassTaxPercentage,UpperIncomeClass___TaxPercentage);\n    }\n        \n    else if(FinalVoteResult == 7){\n        lowerIncomeClass____TaxPercentage = 7;\n        middleIncomeClass___TaxPercentage = 7;\n        midUpperIncomeClassTaxPercentage = 7;\n        UpperIncomeClass___TaxPercentage =  7;\nreturn(lowerIncomeClass____TaxPercentage,middleIncomeClass___TaxPercentage,midUpperIncomeClassTaxPercentage,UpperIncomeClass___TaxPercentage);\n        \n    }\n    else if(FinalVoteResult == 8){\n        lowerIncomeClass____TaxPercentage = 3;\n        middleIncomeClass___TaxPercentage = 5;\n        midUpperIncomeClassTaxPercentage = 7;\n        UpperIncomeClass___TaxPercentage =  10; \nreturn(lowerIncomeClass____TaxPercentage,middleIncomeClass___TaxPercentage,midUpperIncomeClassTaxPercentage,UpperIncomeClass___TaxPercentage);\n    }\n    \n    \n    } \n    \n \n\n    function VoterBackground (uint numsofCar, uint annual_income, bool isclimateChange,bool recievedClimateChangeEducation,\nbool doYouTravelOften, bool isMilitary, uint age) public {\n        Voter storage sender = voters[msg.sender];\n     \n        sender.numsOfCarsOwned = numsofCar;\n        sender.Annual_income = annual_income;\n        sender.climateChangeOrNot = isclimateChange;\n        sender.recievedClimateChangeEducation = recievedClimateChangeEducation;\n        sender.doYouTravelOften = doYouTravelOften;\n        sender.isMilitary = isMilitary;\n        sender.isSurvey = true;                // already fill out the background Survey;\n        sender.age = age;\n        \n    }\n    \n\n     function getBackGround()requireBackGround  view public returns(uint numsofCar,uint annualIncome,bool isClimateChangeBeliver, \n    bool recievedClimateChangeEducation, bool doesVoterTravelOften, bool isMilitary, uint VoterAge)  {\n         Voter storage sender = voters[msg.sender];\n         numsofCar = sender.numsOfCarsOwned;\n         annualIncome = sender.Annual_income;\n         isClimateChangeBeliver = sender.climateChangeOrNot;\n         recievedClimateChangeEducation = sender.recievedClimateChangeEducation;\n         doesVoterTravelOften = sender.doYouTravelOften;\n         isMilitary    = sender.isMilitary;\n         VoterAge = sender.age;\n         \n         \n return(numsofCar, annualIncome, isClimateChangeBeliver, recievedClimateChangeEducation, doesVoterTravelOften, isMilitary, VoterAge);\n \n        \n     }\n     \n      \n     \n     \n    function VoteWeight () requireBackGround  public{\n        Voter storage sender = voters[msg.sender];\n        uint carWeight = 0;\n        uint annual_income_weight = 0;\n        uint cc_Beliver_orNot_weight = 0;\n        uint travel_often_Weight = 0;\n        uint isMilitary_Weight = 0;\n        \n        \n        if(sender.age < 18 || sender.recievedClimateChangeEducation==false ) return;\n        \n////////////////////////////////////////////////////////////////////////////////////////////////////////////////////////////  \n        \n        \n        if(sender.numsOfCarsOwned > 2)     carWeight = 0;    \n        \n        else      carWeight = 1;\n        \n        \n////////////////////////////////////////////////////////////////////////////////////////////////////////////////////////////\n        \n        \n        if(sender.Annual_income < 30000)  annual_income_weight = 3;  //lower class\n        \n        else if(sender.Annual_income > 30000 && sender.Annual_income < 90000) annual_income_weight=2; // middle class\n        \n        \n        else if(sender.Annual_income > 90000 &&  sender.Annual_income<130000) annual_income_weight = 1; //mid-upper class\n        \n        \n        else  annual_income_weight = 0;    // real upper class\n        \n        \n        \n////////////////////////////////////////////////////////////////////////////////////////////////////////////////////////////\n        \n        if(sender.climateChangeOrNot == true)  cc_Beliver_orNot_weight = 2;\n        \n        else cc_Beliver_orNot_weight = 1;\n        \n        \n////////////////////////////////////////////////////////////////////////////////////////////////////////////////////////////\n        \n        if(sender.doYouTravelOften == true)  travel_often_Weight = 2;\n        \n        else travel_often_Weight =1;\n        \n        \n////////////////////////////////////////////////////////////////////////////////////////////////////////////////////////////\n\n        if(sender.isMilitary == true)  isMilitary_Weight = 1;\n        \n        else isMilitary_Weight = 0;\n        \n////////////////////////////////////////////////////////////////////////////////////////////////////////////////////////////\n\n\n    uint temp =  (carWeight + annual_income_weight + isMilitary_Weight - travel_often_Weight) * cc_Beliver_orNot_weight;\n    \n    if(temp<=0){        // if after voteWeight and the weight of vote is less or equal to zero.\n        return; \n    }  \n    \n    else sender.finalVoteWeight = temp;   \n  \n    }\n  \n function getVoteWeight() requireBackGround require_Knownlege_of_CC isEighteen view public returns(uint){\n     Voter storage sender = voters[msg.sender];\n     return sender.finalVoteWeight;\n     \n }\n\n    /// Give $(toVoter) the right to vote on this ballot.\n    /// May only be called by $(chairperson).\n    function giveRightToVote(address toVoter) public {\n        if (msg.sender != chairperson || voters[toVoter].voted) return;\n        voters[toVoter].weight = 1;\n    }\n\n    /// Delegate your vote to the voter $(to).\n    function delegate(address to) public {\n        Voter storage sender = voters[msg.sender]; // assigns reference\n        if (sender.voted) return;\n        while (voters[to].delegate != address(0) && voters[to].delegate != msg.sender)\n            to = voters[to].delegate;\n        if (to == msg.sender) return;\n        sender.voted = true;\n        sender.delegate = to;\n        Voter storage delegateTo = voters[to];\n        if (delegateTo.voted)\n            proposals[delegateTo.vote].voteCount += sender.weight;\n        else\n            delegateTo.weight += sender.weight;\n    }\n\n    /// Give a single vote to proposal $(toProposal).\n    function vote(uint8 toProposal) requireBackGround isEighteen require_Knownlege_of_CC  public {\n        \n        if(toProposal>8 || toProposal == 0 ) return; //must be 1 of proposals out of 8\n        \n        Voter storage sender = voters[msg.sender];\n        if (sender.voted || toProposal >= proposals.length) return;\n        sender.voted = true;\n        sender.vote = toProposal;\n        proposals[toProposal].voteCount += sender.finalVoteWeight;\n        \n        \n        \n        Proposal storage p = proposal[chairperson];\n        p.president_appoval = true;\n        temp = winningProposal();\n        p.president_appoval = false;\n    }\n\n\n    function winningProposal()presidentAppoval  public view returns (uint8 _winningProposal) {\n        \n        uint256 winningVoteCount = 0;\n        for (uint8 prop = 0; prop < proposals.length; prop++){\n       \n            if (proposals[prop].voteCount > winningVoteCount) {\n                winningVoteCount = proposals[prop].voteCount;\n                _winningProposal = prop;\n            }\n    }\n}\n\n}\n",
  "sourcePath": "/Users/jinyanchen/Desktop/Ballot-Dapp/ballot-contract/contracts/Ballot.sol",
  "compiler": {
    "name": "solc",
    "version": "0.5.8+commit.23d335f2.Emscripten.clang"
  },
  "schemaVersion": "3.0.16",
  "updatedAt": "2019-10-30T23:56:22.286Z",
  "devdoc": {
    "methods": {}
  },
  "userdoc": {
    "methods": {
      "constructor": "Create a new ballot with $(_numProposals) different proposals.",
      "delegate(address)": {
        "notice": "Delegate your vote to the voter $(to)."
      },
      "giveRightToVote(address)": {
        "notice": "Give $(toVoter) the right to vote on this ballot. May only be called by $(chairperson)."
      },
      "vote(uint8)": {
        "notice": "Give a single vote to proposal $(toProposal)."
      }
    }
  }
}